{
  "contractName": "Tickets",
  "abi": [
    {
      "constant": true,
      "inputs": [],
      "name": "organizer",
      "outputs": [
        {
          "name": "",
          "type": "address"
        }
      ],
      "payable": false,
      "stateMutability": "view",
      "type": "function"
    },
    {
      "constant": true,
      "inputs": [],
      "name": "myTicketsCount",
      "outputs": [
        {
          "name": "",
          "type": "uint256"
        }
      ],
      "payable": false,
      "stateMutability": "view",
      "type": "function"
    },
    {
      "constant": true,
      "inputs": [],
      "name": "ticketsLeft",
      "outputs": [
        {
          "name": "",
          "type": "uint256"
        }
      ],
      "payable": false,
      "stateMutability": "view",
      "type": "function"
    },
    {
      "constant": true,
      "inputs": [
        {
          "name": "",
          "type": "address"
        }
      ],
      "name": "tickets",
      "outputs": [
        {
          "name": "",
          "type": "uint256"
        }
      ],
      "payable": false,
      "stateMutability": "view",
      "type": "function"
    },
    {
      "constant": true,
      "inputs": [],
      "name": "totalTickets",
      "outputs": [
        {
          "name": "",
          "type": "uint256"
        }
      ],
      "payable": false,
      "stateMutability": "view",
      "type": "function"
    },
    {
      "constant": true,
      "inputs": [],
      "name": "boughtTickets",
      "outputs": [
        {
          "name": "",
          "type": "uint256"
        }
      ],
      "payable": false,
      "stateMutability": "view",
      "type": "function"
    },
    {
      "constant": false,
      "inputs": [],
      "name": "buyTicket",
      "outputs": [
        {
          "name": "",
          "type": "bool"
        }
      ],
      "payable": false,
      "stateMutability": "nonpayable",
      "type": "function"
    },
    {
      "inputs": [],
      "payable": false,
      "stateMutability": "nonpayable",
      "type": "constructor"
    }
  ],
  "bytecode": "0x6060604052341561000f57600080fd5b336000806101000a81548173ffffffffffffffffffffffffffffffffffffffff021916908373ffffffffffffffffffffffffffffffffffffffff160217905550606460028190555060006003819055506103468061006e6000396000f300606060405260043610610083576000357c0100000000000000000000000000000000000000000000000000000000900463ffffffff168063612032651461008857806361614137146100dd5780636cab5e5b146101065780636dcbf2a31461012f578063dd11247e1461017c578063e38e7dc4146101a5578063edca914c146101ce575b600080fd5b341561009357600080fd5b61009b6101fb565b604051808273ffffffffffffffffffffffffffffffffffffffff1673ffffffffffffffffffffffffffffffffffffffff16815260200191505060405180910390f35b34156100e857600080fd5b6100f0610220565b6040518082815260200191505060405180910390f35b341561011157600080fd5b610119610267565b6040518082815260200191505060405180910390f35b341561013a57600080fd5b610166600480803573ffffffffffffffffffffffffffffffffffffffff16906020019091905050610275565b6040518082815260200191505060405180910390f35b341561018757600080fd5b61018f61028d565b6040518082815260200191505060405180910390f35b34156101b057600080fd5b6101b8610293565b6040518082815260200191505060405180910390f35b34156101d957600080fd5b6101e1610299565b604051808215151515815260200191505060405180910390f35b6000809054906101000a900473ffffffffffffffffffffffffffffffffffffffff1681565b6000600160003373ffffffffffffffffffffffffffffffffffffffff1673ffffffffffffffffffffffffffffffffffffffff16815260200190815260200160002054905090565b600060035460025403905090565b60016020528060005260406000206000915090505481565b60025481565b60035481565b60006002546003541015156102b15760009050610317565b600160003373ffffffffffffffffffffffffffffffffffffffff1673ffffffffffffffffffffffffffffffffffffffff16815260200190815260200160002060008154809291906001019190505550600360008154809291906001019190505550600190505b905600a165627a7a72305820cac38a7a018295eea040cf45489cdfb00bfcb21bdcc293d94948604e335844f50029",
  "source": "pragma solidity ^0.4.4;\n\ncontract Tickets{\n\n\taddress public organizer;\n\tmapping (address => uint) public tickets;\n\tuint public totalTickets;\n\tuint public boughtTickets;\n\n\tfunction Tickets() public{\n\n\t\torganizer = msg.sender;\n\t\ttotalTickets=100;\n\t\tboughtTickets=0;\n\t}\n\n\tfunction buyTicket() public returns (bool){\n\t\tif (boughtTickets>=totalTickets){\n\t\t\treturn false;\n\t\t}\n\n\t\ttickets[msg.sender]++;\n\t\tboughtTickets++;\n\t\treturn true;\n\t}\n\t\n\tfunction ticketsLeft() public view returns (uint){\n\t    return totalTickets-boughtTickets;\n\t}\n\n    function myTicketsCount() public view returns (uint){\n        return tickets[msg.sender];\n    }\n\n}",
  "sourcePath": "D:\\TicketsDapp\\contracts\\Tickets.sol",
  "compiler": {
    "name": "solc",
    "version": "0.4.18+commit.9cf6e910.Emscripten.clang"
  },
  "schemaVersion": "1.0.1",
  "updatedAt": "2017-11-23T19:23:43.710Z"
}